{
  "contractName": "Voting",
  "abi": [
    {
      "inputs": [],
      "stateMutability": "nonpayable",
      "type": "constructor"
    },
    {
      "anonymous": false,
      "inputs": [
        {
          "indexed": true,
          "internalType": "uint256",
          "name": "candidateId",
          "type": "uint256"
        },
        {
          "indexed": false,
          "internalType": "string",
          "name": "name",
          "type": "string"
        },
        {
          "indexed": false,
          "internalType": "string",
          "name": "party",
          "type": "string"
        },
        {
          "indexed": false,
          "internalType": "string",
          "name": "position",
          "type": "string"
        }
      ],
      "name": "CandidateAdded",
      "type": "event"
    },
    {
      "anonymous": false,
      "inputs": [
        {
          "indexed": true,
          "internalType": "address",
          "name": "previousOwner",
          "type": "address"
        },
        {
          "indexed": true,
          "internalType": "address",
          "name": "newOwner",
          "type": "address"
        }
      ],
      "name": "OwnershipTransferred",
      "type": "event"
    },
    {
      "anonymous": false,
      "inputs": [
        {
          "indexed": true,
          "internalType": "uint256",
          "name": "partyId",
          "type": "uint256"
        },
        {
          "indexed": false,
          "internalType": "string",
          "name": "partyName",
          "type": "string"
        }
      ],
      "name": "PartyAdded",
      "type": "event"
    },
    {
      "anonymous": false,
      "inputs": [
        {
          "indexed": true,
          "internalType": "uint256",
          "name": "voterID",
          "type": "uint256"
        },
        {
          "indexed": true,
          "internalType": "uint256",
          "name": "partyId",
          "type": "uint256"
        },
        {
          "indexed": false,
          "internalType": "string",
          "name": "partyName",
          "type": "string"
        }
      ],
      "name": "PartyVoteCast",
      "type": "event"
    },
    {
      "anonymous": false,
      "inputs": [
        {
          "indexed": true,
          "internalType": "uint256",
          "name": "voterID",
          "type": "uint256"
        },
        {
          "indexed": true,
          "internalType": "uint256",
          "name": "candidateId",
          "type": "uint256"
        },
        {
          "indexed": false,
          "internalType": "string",
          "name": "position",
          "type": "string"
        }
      ],
      "name": "VoteCast",
      "type": "event"
    },
    {
      "anonymous": false,
      "inputs": [
        {
          "indexed": true,
          "internalType": "uint256",
          "name": "voterID",
          "type": "uint256"
        }
      ],
      "name": "VoterRegistered",
      "type": "event"
    },
    {
      "inputs": [
        {
          "internalType": "string",
          "name": "_name",
          "type": "string"
        },
        {
          "internalType": "string",
          "name": "_party",
          "type": "string"
        },
        {
          "internalType": "string",
          "name": "_position",
          "type": "string"
        },
        {
          "internalType": "string",
          "name": "_district",
          "type": "string"
        },
        {
          "internalType": "uint256",
          "name": "_areaNo",
          "type": "uint256"
        },
        {
          "internalType": "string",
          "name": "_candidatePhotoUrl",
          "type": "string"
        },
        {
          "internalType": "string",
          "name": "_candidatePartyLogoUrl",
          "type": "string"
        }
      ],
      "name": "addCandidate",
      "outputs": [
        {
          "internalType": "bool",
          "name": "success",
          "type": "bool"
        }
      ],
      "stateMutability": "nonpayable",
      "type": "function"
    },
    {
      "inputs": [
        {
          "internalType": "string",
          "name": "_partyName",
          "type": "string"
        },
        {
          "internalType": "string",
          "name": "_partyLogoUrl",
          "type": "string"
        },
        {
          "internalType": "string",
          "name": "_district",
          "type": "string"
        },
        {
          "internalType": "uint256",
          "name": "_areaNo",
          "type": "uint256"
        }
      ],
      "name": "addParty",
      "outputs": [
        {
          "internalType": "bool",
          "name": "success",
          "type": "bool"
        }
      ],
      "stateMutability": "nonpayable",
      "type": "function"
    },
    {
      "inputs": [],
      "name": "candidateCount",
      "outputs": [
        {
          "internalType": "uint256",
          "name": "",
          "type": "uint256"
        }
      ],
      "stateMutability": "view",
      "type": "function",
      "constant": true
    },
    {
      "inputs": [
        {
          "internalType": "uint256",
          "name": "",
          "type": "uint256"
        }
      ],
      "name": "candidates",
      "outputs": [
        {
          "internalType": "string",
          "name": "name",
          "type": "string"
        },
        {
          "internalType": "string",
          "name": "party",
          "type": "string"
        },
        {
          "internalType": "string",
          "name": "position",
          "type": "string"
        },
        {
          "internalType": "string",
          "name": "district",
          "type": "string"
        },
        {
          "internalType": "uint256",
          "name": "areaNo",
          "type": "uint256"
        },
        {
          "internalType": "uint256",
          "name": "voteCount",
          "type": "uint256"
        },
        {
          "internalType": "string",
          "name": "candidatePhotoUrl",
          "type": "string"
        },
        {
          "internalType": "string",
          "name": "candidatePartyLogoUrl",
          "type": "string"
        }
      ],
      "stateMutability": "view",
      "type": "function",
      "constant": true
    },
    {
      "inputs": [],
      "name": "getAllPartiesWithResults",
      "outputs": [
        {
          "internalType": "uint256[]",
          "name": "ids",
          "type": "uint256[]"
        },
        {
          "internalType": "string[]",
          "name": "names",
          "type": "string[]"
        },
        {
          "internalType": "string[]",
          "name": "logoUrls",
          "type": "string[]"
        },
        {
          "internalType": "string[]",
          "name": "districts",
          "type": "string[]"
        },
        {
          "internalType": "uint256[]",
          "name": "areaNumbers",
          "type": "uint256[]"
        },
        {
          "internalType": "uint256[]",
          "name": "voteCounts",
          "type": "uint256[]"
        }
      ],
      "stateMutability": "view",
      "type": "function",
      "constant": true
    },
    {
      "inputs": [
        {
          "internalType": "uint256",
          "name": "candidateId",
          "type": "uint256"
        }
      ],
      "name": "getCandidate",
      "outputs": [
        {
          "internalType": "string",
          "name": "name",
          "type": "string"
        },
        {
          "internalType": "string",
          "name": "party",
          "type": "string"
        },
        {
          "internalType": "string",
          "name": "position",
          "type": "string"
        },
        {
          "internalType": "string",
          "name": "district",
          "type": "string"
        },
        {
          "internalType": "uint256",
          "name": "areaNo",
          "type": "uint256"
        },
        {
          "internalType": "uint256",
          "name": "voteCount",
          "type": "uint256"
        },
        {
          "internalType": "string",
          "name": "candidatePhotoUrl",
          "type": "string"
        },
        {
          "internalType": "string",
          "name": "candidatePartyLogoUrl",
          "type": "string"
        }
      ],
      "stateMutability": "view",
      "type": "function",
      "constant": true
    },
    {
      "inputs": [],
      "name": "getCandidateCount",
      "outputs": [
        {
          "internalType": "uint256",
          "name": "",
          "type": "uint256"
        }
      ],
      "stateMutability": "view",
      "type": "function",
      "constant": true
    },
    {
      "inputs": [
        {
          "internalType": "uint256",
          "name": "partyId",
          "type": "uint256"
        }
      ],
      "name": "getParty",
      "outputs": [
        {
          "internalType": "string",
          "name": "partyName",
          "type": "string"
        },
        {
          "internalType": "string",
          "name": "partyLogoUrl",
          "type": "string"
        },
        {
          "internalType": "string",
          "name": "district",
          "type": "string"
        },
        {
          "internalType": "uint256",
          "name": "areaNo",
          "type": "uint256"
        },
        {
          "internalType": "uint256",
          "name": "voteCount",
          "type": "uint256"
        }
      ],
      "stateMutability": "view",
      "type": "function",
      "constant": true
    },
    {
      "inputs": [],
      "name": "getPartyCount",
      "outputs": [
        {
          "internalType": "uint256",
          "name": "",
          "type": "uint256"
        }
      ],
      "stateMutability": "view",
      "type": "function",
      "constant": true
    },
    {
      "inputs": [],
      "name": "getTotalVoterCount",
      "outputs": [
        {
          "internalType": "uint256",
          "name": "",
          "type": "uint256"
        }
      ],
      "stateMutability": "view",
      "type": "function",
      "constant": true
    },
    {
      "inputs": [
        {
          "internalType": "uint256",
          "name": "",
          "type": "uint256"
        }
      ],
      "name": "hasVotedForParty",
      "outputs": [
        {
          "internalType": "bool",
          "name": "",
          "type": "bool"
        }
      ],
      "stateMutability": "view",
      "type": "function",
      "constant": true
    },
    {
      "inputs": [
        {
          "internalType": "uint256",
          "name": "",
          "type": "uint256"
        },
        {
          "internalType": "string",
          "name": "",
          "type": "string"
        }
      ],
      "name": "hasVotedForPosition",
      "outputs": [
        {
          "internalType": "bool",
          "name": "",
          "type": "bool"
        }
      ],
      "stateMutability": "view",
      "type": "function",
      "constant": true
    },
    {
      "inputs": [],
      "name": "owner",
      "outputs": [
        {
          "internalType": "address",
          "name": "",
          "type": "address"
        }
      ],
      "stateMutability": "view",
      "type": "function",
      "constant": true
    },
    {
      "inputs": [
        {
          "internalType": "uint256",
          "name": "",
          "type": "uint256"
        }
      ],
      "name": "parties",
      "outputs": [
        {
          "internalType": "string",
          "name": "partyName",
          "type": "string"
        },
        {
          "internalType": "string",
          "name": "partyLogoUrl",
          "type": "string"
        },
        {
          "internalType": "string",
          "name": "district",
          "type": "string"
        },
        {
          "internalType": "uint256",
          "name": "areaNo",
          "type": "uint256"
        },
        {
          "internalType": "uint256",
          "name": "voteCount",
          "type": "uint256"
        }
      ],
      "stateMutability": "view",
      "type": "function",
      "constant": true
    },
    {
      "inputs": [],
      "name": "partyCount",
      "outputs": [
        {
          "internalType": "uint256",
          "name": "",
          "type": "uint256"
        }
      ],
      "stateMutability": "view",
      "type": "function",
      "constant": true
    },
    {
      "inputs": [
        {
          "internalType": "uint256",
          "name": "_voterID",
          "type": "uint256"
        }
      ],
      "name": "registerVoter",
      "outputs": [],
      "stateMutability": "nonpayable",
      "type": "function"
    },
    {
      "inputs": [
        {
          "internalType": "uint256",
          "name": "",
          "type": "uint256"
        }
      ],
      "name": "registeredVoters",
      "outputs": [
        {
          "internalType": "bool",
          "name": "",
          "type": "bool"
        }
      ],
      "stateMutability": "view",
      "type": "function",
      "constant": true
    },
    {
      "inputs": [],
      "name": "voterCount",
      "outputs": [
        {
          "internalType": "uint256",
          "name": "",
          "type": "uint256"
        }
      ],
      "stateMutability": "view",
      "type": "function",
      "constant": true
    },
    {
      "inputs": [
        {
          "internalType": "uint256",
          "name": "voterID",
          "type": "uint256"
        },
        {
          "internalType": "uint256",
          "name": "candidateId",
          "type": "uint256"
        }
      ],
      "name": "vote",
      "outputs": [
        {
          "internalType": "bool",
          "name": "success",
          "type": "bool"
        }
      ],
      "stateMutability": "nonpayable",
      "type": "function"
    },
    {
      "inputs": [
        {
          "internalType": "uint256",
          "name": "voterID",
          "type": "uint256"
        },
        {
          "internalType": "uint256",
          "name": "partyId",
          "type": "uint256"
        }
      ],
      "name": "voteForParty",
      "outputs": [
        {
          "internalType": "bool",
          "name": "success",
          "type": "bool"
        }
      ],
      "stateMutability": "nonpayable",
      "type": "function"
    },
    {
      "inputs": [
        {
          "internalType": "uint256",
          "name": "voterID",
          "type": "uint256"
        }
      ],
      "name": "hasVoterVotedForParty",
      "outputs": [
        {
          "internalType": "bool",
          "name": "",
          "type": "bool"
        }
      ],
      "stateMutability": "view",
      "type": "function",
      "constant": true
    },
    {
      "inputs": [],
      "name": "getAllCandidatesWithResults",
      "outputs": [
        {
          "internalType": "uint256[]",
          "name": "ids",
          "type": "uint256[]"
        },
        {
          "internalType": "string[]",
          "name": "names",
          "type": "string[]"
        },
        {
          "internalType": "string[]",
          "name": "parties",
          "type": "string[]"
        },
        {
          "internalType": "string[]",
          "name": "positions",
          "type": "string[]"
        },
        {
          "internalType": "uint256[]",
          "name": "voteCounts",
          "type": "uint256[]"
        },
        {
          "internalType": "string[]",
          "name": "photoUrls",
          "type": "string[]"
        },
        {
          "internalType": "string[]",
          "name": "logoUrls",
          "type": "string[]"
        }
      ],
      "stateMutability": "view",
      "type": "function",
      "constant": true
    },
    {
      "inputs": [],
      "name": "getTotalVotesCast",
      "outputs": [
        {
          "internalType": "uint256",
          "name": "",
          "type": "uint256"
        }
      ],
      "stateMutability": "view",
      "type": "function",
      "constant": true
    },
    {
      "inputs": [],
      "name": "getTotalPartyVotesCast",
      "outputs": [
        {
          "internalType": "uint256",
          "name": "",
          "type": "uint256"
        }
      ],
      "stateMutability": "view",
      "type": "function",
      "constant": true
    }
  ],
  "bytecode": "0x608060405234801561001057600080fd5b50600080546001600160a01b03191633179055613024806100326000396000f3fe608060405234801561001057600080fd5b50600436106101585760003560e01c806392e2c6d2116100c3578063b1c67d971161007c578063b1c67d97146102af578063b384abef146102c2578063cbe8ca03146102d5578063d2098c0f146102e8578063e8370901146102fb578063ee3292d11461031557610158565b806392e2c6d21461025c57806394758218146102645780639eb8e72514610277578063a11b4aa31461027f578063a13f2f8d14610292578063a9a981a3146102a757610158565b8063546dbe0311610115578063546dbe03146101e557806360b960e5146101f857806367a513961461020057806370651a18146102085780637f5f8f941461022c5780638da5cb5b1461024757610158565b80632436e06b1461015d57806330a56347146101865780633477ee2e1461019b57806335b8e820146101c257806342169e48146101d557806346470af1146101dd575b600080fd5b61017061016b3660046127ca565b610328565b60405161017d9190612abb565b60405180910390f35b61018e61033d565b60405161017d9190612f1b565b6101ae6101a93660046127ca565b610343565b60405161017d989796959493929190612b23565b6101ae6101d03660046127ca565b6106b3565b61018e610ac7565b61018e610acd565b6101706101f33660046127e2565b610b12565b61018e610b43565b61018e610b49565b61021b6102163660046127ca565b610b4f565b60405161017d959493929190612bb6565b610234610d15565b60405161017d97969594939291906129a2565b61024f6114a9565b60405161017d919061298e565b61018e6114b8565b61021b6102723660046127ca565b6114f7565b61018e611730565b61017061028d3660046127ca565b611736565b6102a56102a03660046127ca565b61174b565b005b61018e61181e565b6101706102bd366004612647565b611824565b6101706102d0366004612826565b611b44565b6101706102e3366004612826565b611c95565b6101706102f63660046127ca565b611d9f565b610303611db4565b60405161017d96959493929190612a39565b61017061032336600461273f565b6122f7565b60036020526000908152604090205460ff1681565b60025490565b60016020526000908152604090208054819061035e90612f6c565b80601f016020809104026020016040519081016040528092919081815260200182805461038a90612f6c565b80156103d75780601f106103ac576101008083540402835291602001916103d7565b820191906000526020600020905b8154815290600101906020018083116103ba57829003601f168201915b5050505050908060010180546103ec90612f6c565b80601f016020809104026020016040519081016040528092919081815260200182805461041890612f6c565b80156104655780601f1061043a57610100808354040283529160200191610465565b820191906000526020600020905b81548152906001019060200180831161044857829003601f168201915b50505050509080600201805461047a90612f6c565b80601f01602080910402602001604051908101604052809291908181526020018280546104a690612f6c565b80156104f35780601f106104c8576101008083540402835291602001916104f3565b820191906000526020600020905b8154815290600101906020018083116104d657829003601f168201915b50505050509080600301805461050890612f6c565b80601f016020809104026020016040519081016040528092919081815260200182805461053490612f6c565b80156105815780601f1061055657610100808354040283529160200191610581565b820191906000526020600020905b81548152906001019060200180831161056457829003601f168201915b5050505050908060040154908060050154908060060180546105a290612f6c565b80601f01602080910402602001604051908101604052809291908181526020018280546105ce90612f6c565b801561061b5780601f106105f05761010080835404028352916020019161061b565b820191906000526020600020905b8154815290600101906020018083116105fe57829003601f168201915b50505050509080600701805461063090612f6c565b80601f016020809104026020016040519081016040528092919081815260200182805461065c90612f6c565b80156106a95780601f1061067e576101008083540402835291602001916106a9565b820191906000526020600020905b81548152906001019060200180831161068c57829003601f168201915b5050505050905088565b60608060608060008060608060025489106106e95760405162461bcd60e51b81526004016106e090612d75565b60405180910390fd5b6000898152600160205260408082208151610100810190925280548290829061071190612f6c565b80601f016020809104026020016040519081016040528092919081815260200182805461073d90612f6c565b801561078a5780601f1061075f5761010080835404028352916020019161078a565b820191906000526020600020905b81548152906001019060200180831161076d57829003601f168201915b505050505081526020016001820180546107a390612f6c565b80601f01602080910402602001604051908101604052809291908181526020018280546107cf90612f6c565b801561081c5780601f106107f15761010080835404028352916020019161081c565b820191906000526020600020905b8154815290600101906020018083116107ff57829003601f168201915b5050505050815260200160028201805461083590612f6c565b80601f016020809104026020016040519081016040528092919081815260200182805461086190612f6c565b80156108ae5780601f10610883576101008083540402835291602001916108ae565b820191906000526020600020905b81548152906001019060200180831161089157829003601f168201915b505050505081526020016003820180546108c790612f6c565b80601f01602080910402602001604051908101604052809291908181526020018280546108f390612f6c565b80156109405780601f1061091557610100808354040283529160200191610940565b820191906000526020600020905b81548152906001019060200180831161092357829003601f168201915b50505050508152602001600482015481526020016005820154815260200160068201805461096d90612f6c565b80601f016020809104026020016040519081016040528092919081815260200182805461099990612f6c565b80156109e65780601f106109bb576101008083540402835291602001916109e6565b820191906000526020600020905b8154815290600101906020018083116109c957829003601f168201915b505050505081526020016007820180546109ff90612f6c565b80601f0160208091040260200160405190810160405280929190818152602001828054610a2b90612f6c565b8015610a785780601f10610a4d57610100808354040283529160200191610a78565b820191906000526020600020905b815481529060010190602001808311610a5b57829003601f168201915b5050505050815250509050806000015181602001518260400151836060015184608001518560a001518660c001518760e001519850985098509850985098509850985050919395975091939597565b60045481565b600080805b600754811015610b0c57600081815260066020526040902060040154610af89083612f24565b915080610b0481612fa7565b915050610ad2565b50905090565b6005602090815260009283526040909220815180830184018051928152908401929093019190912091525460ff1681565b60075490565b60045490565b600660205260009081526040902080548190610b6a90612f6c565b80601f0160208091040260200160405190810160405280929190818152602001828054610b9690612f6c565b8015610be35780601f10610bb857610100808354040283529160200191610be3565b820191906000526020600020905b815481529060010190602001808311610bc657829003601f168201915b505050505090806001018054610bf890612f6c565b80601f0160208091040260200160405190810160405280929190818152602001828054610c2490612f6c565b8015610c715780601f10610c4657610100808354040283529160200191610c71565b820191906000526020600020905b815481529060010190602001808311610c5457829003601f168201915b505050505090806002018054610c8690612f6c565b80601f0160208091040260200160405190810160405280929190818152602001828054610cb290612f6c565b8015610cff5780601f10610cd457610100808354040283529160200191610cff565b820191906000526020600020905b815481529060010190602001808311610ce257829003601f168201915b5050505050908060030154908060040154905085565b606080606080606080606060006002549050806001600160401b03811115610d4d57634e487b7160e01b600052604160045260246000fd5b604051908082528060200260200182016040528015610d76578160200160208202803683370190505b509750806001600160401b03811115610d9f57634e487b7160e01b600052604160045260246000fd5b604051908082528060200260200182016040528015610dd257816020015b6060815260200190600190039081610dbd5790505b509650806001600160401b03811115610dfb57634e487b7160e01b600052604160045260246000fd5b604051908082528060200260200182016040528015610e2e57816020015b6060815260200190600190039081610e195790505b509550806001600160401b03811115610e5757634e487b7160e01b600052604160045260246000fd5b604051908082528060200260200182016040528015610e8a57816020015b6060815260200190600190039081610e755790505b509450806001600160401b03811115610eb357634e487b7160e01b600052604160045260246000fd5b604051908082528060200260200182016040528015610edc578160200160208202803683370190505b509350806001600160401b03811115610f0557634e487b7160e01b600052604160045260246000fd5b604051908082528060200260200182016040528015610f3857816020015b6060815260200190600190039081610f235790505b509250806001600160401b03811115610f6157634e487b7160e01b600052604160045260246000fd5b604051908082528060200260200182016040528015610f9457816020015b6060815260200190600190039081610f7f5790505b50915060005b8181101561149e5760008181526001602052604080822081516101008101909252805482908290610fca90612f6c565b80601f0160208091040260200160405190810160405280929190818152602001828054610ff690612f6c565b80156110435780601f1061101857610100808354040283529160200191611043565b820191906000526020600020905b81548152906001019060200180831161102657829003601f168201915b5050505050815260200160018201805461105c90612f6c565b80601f016020809104026020016040519081016040528092919081815260200182805461108890612f6c565b80156110d55780601f106110aa576101008083540402835291602001916110d5565b820191906000526020600020905b8154815290600101906020018083116110b857829003601f168201915b505050505081526020016002820180546110ee90612f6c565b80601f016020809104026020016040519081016040528092919081815260200182805461111a90612f6c565b80156111675780601f1061113c57610100808354040283529160200191611167565b820191906000526020600020905b81548152906001019060200180831161114a57829003601f168201915b5050505050815260200160038201805461118090612f6c565b80601f01602080910402602001604051908101604052809291908181526020018280546111ac90612f6c565b80156111f95780601f106111ce576101008083540402835291602001916111f9565b820191906000526020600020905b8154815290600101906020018083116111dc57829003601f168201915b50505050508152602001600482015481526020016005820154815260200160068201805461122690612f6c565b80601f016020809104026020016040519081016040528092919081815260200182805461125290612f6c565b801561129f5780601f106112745761010080835404028352916020019161129f565b820191906000526020600020905b81548152906001019060200180831161128257829003601f168201915b505050505081526020016007820180546112b890612f6c565b80601f01602080910402602001604051908101604052809291908181526020018280546112e490612f6c565b80156113315780601f1061130657610100808354040283529160200191611331565b820191906000526020600020905b81548152906001019060200180831161131457829003601f168201915b5050505050815250509050818a838151811061135d57634e487b7160e01b600052603260045260246000fd5b602002602001018181525050806000015189838151811061138e57634e487b7160e01b600052603260045260246000fd5b602002602001018190525080602001518883815181106113be57634e487b7160e01b600052603260045260246000fd5b602002602001018190525080604001518783815181106113ee57634e487b7160e01b600052603260045260246000fd5b60200260200101819052508060a0015186838151811061141e57634e487b7160e01b600052603260045260246000fd5b6020026020010181815250508060c0015185838151811061144f57634e487b7160e01b600052603260045260246000fd5b60200260200101819052508060e0015184838151811061147f57634e487b7160e01b600052603260045260246000fd5b602002602001018190525050808061149690612fa7565b915050610f9a565b505090919293949596565b6000546001600160a01b031681565b600080805b600254811015610b0c576000818152600160205260409020600501546114e39083612f24565b9150806114ef81612fa7565b9150506114bd565b606080606060008060075486106115205760405162461bcd60e51b81526004016106e090612dac565b600086815260066020526040808220815160a0810190925280548290829061154790612f6c565b80601f016020809104026020016040519081016040528092919081815260200182805461157390612f6c565b80156115c05780601f10611595576101008083540402835291602001916115c0565b820191906000526020600020905b8154815290600101906020018083116115a357829003601f168201915b505050505081526020016001820180546115d990612f6c565b80601f016020809104026020016040519081016040528092919081815260200182805461160590612f6c565b80156116525780601f1061162757610100808354040283529160200191611652565b820191906000526020600020905b81548152906001019060200180831161163557829003601f168201915b5050505050815260200160028201805461166b90612f6c565b80601f016020809104026020016040519081016040528092919081815260200182805461169790612f6c565b80156116e45780601f106116b9576101008083540402835291602001916116e4565b820191906000526020600020905b8154815290600101906020018083116116c757829003601f168201915b5050505050815260200160038201548152602001600482015481525050905080600001518160200151826040015183606001518460800151955095509550955095505091939590929450565b60075481565b60086020526000908152604090205460ff1681565b6000546001600160a01b031633146117755760405162461bcd60e51b81526004016106e090612ed9565b60008181526003602052604090205460ff16156117a45760405162461bcd60e51b81526004016106e090612ea4565b600081116117c45760405162461bcd60e51b81526004016106e090612d3e565b6000818152600360205260408120805460ff1916600117905560048054916117eb83612fa7565b909155505060405181907f640cfad995238c39f105b2884a2e9d3b1482d753cdcc97f2e7db4192e89121a890600090a250565b60025481565b600080546001600160a01b0316331461184f5760405162461bcd60e51b81526004016106e090612ed9565b60005b6002548110156119d5578660405160200161186d9190612903565b60408051601f1981840301815282825280516020918201206000858152600183529290922091926118a292600201910161291f565b604051602081830303815290604052805190602001201480156119255750876040516020016118d19190612903565b604051602081830303815290604052805190602001206001600083815260200190815260200160002060010160405160200161190d919061291f565b60405160208183030381529060405280519060200120145b801561198a57508560405160200161193d9190612903565b60408051601f19818403018152828252805160209182012060008581526001835292909220919261197292600301910161291f565b60405160208183030381529060405280519060200120145b80156119a6575060008181526001602052604090206004015485145b156119c35760405162461bcd60e51b81526004016106e090612cc7565b806119cd81612fa7565b915050611852565b5060405180610100016040528089815260200188815260200187815260200186815260200185815260200160008152602001848152602001838152506001600060025481526020019081526020016000206000820151816000019080519060200190611a4292919061252e565b506020828101518051611a5b926001850192019061252e565b5060408201518051611a7791600284019160209091019061252e565b5060608201518051611a9391600384019160209091019061252e565b506080820151600482015560a0820151600582015560c08201518051611ac391600684019160209091019061252e565b5060e08201518051611adf91600784019160209091019061252e565b509050506002547f52b689af7ae3bd15a5156582545571237b58abd804c1456c3269d1b1ee93f6fc898989604051611b1993929190612ae0565b60405180910390a260028054906000611b3183612fa7565b9091555060019998505050505050505050565b60008281526003602052604081205460ff16611b725760405162461bcd60e51b81526004016106e090612dda565b6002548210611b935760405162461bcd60e51b81526004016106e090612d75565b60008281526001602090815260408083208684526005909252918290209151909190611bc390600284019061291f565b9081526040519081900360200190205460ff1615611bf35760405162461bcd60e51b81526004016106e090612e5c565b60016005600086815260200190815260200160002082600201604051611c19919061291f565b908152604051908190036020019020805491151560ff19909216919091179055600581018054906000611c4b83612fa7565b919050555082847e456ed617fed3a318d51afb6deea365d48338bb87f074912de899383e51be2b83600201604051611c839190612c04565b60405180910390a35060019392505050565b60008281526003602052604081205460ff16611cc35760405162461bcd60e51b81526004016106e090612dda565b6007548210611ce45760405162461bcd60e51b81526004016106e090612dac565b60008381526008602052604090205460ff1615611d135760405162461bcd60e51b81526004016106e090612c85565b6000838152600860209081526040808320805460ff1916600117905584835260069091528120600401805491611d4883612fa7565b9091555050600082815260066020526040908190209051839185917f016b104bab31035e339ec343c314ab6641c8f1c2c12d4731f4f80f79d1f078e291611d8e91612c04565b60405180910390a350600192915050565b60009081526008602052604090205460ff1690565b60608060608060608060006007549050806001600160401b03811115611dea57634e487b7160e01b600052604160045260246000fd5b604051908082528060200260200182016040528015611e13578160200160208202803683370190505b509650806001600160401b03811115611e3c57634e487b7160e01b600052604160045260246000fd5b604051908082528060200260200182016040528015611e6f57816020015b6060815260200190600190039081611e5a5790505b509550806001600160401b03811115611e9857634e487b7160e01b600052604160045260246000fd5b604051908082528060200260200182016040528015611ecb57816020015b6060815260200190600190039081611eb65790505b509450806001600160401b03811115611ef457634e487b7160e01b600052604160045260246000fd5b604051908082528060200260200182016040528015611f2757816020015b6060815260200190600190039081611f125790505b509350806001600160401b03811115611f5057634e487b7160e01b600052604160045260246000fd5b604051908082528060200260200182016040528015611f79578160200160208202803683370190505b509250806001600160401b03811115611fa257634e487b7160e01b600052604160045260246000fd5b604051908082528060200260200182016040528015611fcb578160200160208202803683370190505b50915060005b818110156122ed57600081815260066020526040808220815160a0810190925280548290829061200090612f6c565b80601f016020809104026020016040519081016040528092919081815260200182805461202c90612f6c565b80156120795780601f1061204e57610100808354040283529160200191612079565b820191906000526020600020905b81548152906001019060200180831161205c57829003601f168201915b5050505050815260200160018201805461209290612f6c565b80601f01602080910402602001604051908101604052809291908181526020018280546120be90612f6c565b801561210b5780601f106120e05761010080835404028352916020019161210b565b820191906000526020600020905b8154815290600101906020018083116120ee57829003601f168201915b5050505050815260200160028201805461212490612f6c565b80601f016020809104026020016040519081016040528092919081815260200182805461215090612f6c565b801561219d5780601f106121725761010080835404028352916020019161219d565b820191906000526020600020905b81548152906001019060200180831161218057829003601f168201915b50505050508152602001600382015481526020016004820154815250509050818983815181106121dd57634e487b7160e01b600052603260045260246000fd5b602002602001018181525050806000015188838151811061220e57634e487b7160e01b600052603260045260246000fd5b6020026020010181905250806020015187838151811061223e57634e487b7160e01b600052603260045260246000fd5b6020026020010181905250806040015186838151811061226e57634e487b7160e01b600052603260045260246000fd5b6020026020010181905250806060015185838151811061229e57634e487b7160e01b600052603260045260246000fd5b60200260200101818152505080608001518483815181106122cf57634e487b7160e01b600052603260045260246000fd5b602090810291909101015250806122e581612fa7565b915050611fd1565b5050909192939495565b600080546001600160a01b031633146123225760405162461bcd60e51b81526004016106e090612ed9565b60005b60075481101561243957836040516020016123409190612903565b60408051601f19818403018152828252805160209182012060008581526006835292909220919261237592600201910161291f565b604051602081830303815290604052805190602001201480156123a8575060008181526006602052604090206003015483145b801561240a5750856040516020016123c09190612903565b60408051601f1981840301815282825280516020918201206000858152600683529290922091926123f292910161291f565b60405160208183030381529060405280519060200120145b156124275760405162461bcd60e51b81526004016106e090612e0a565b8061243181612fa7565b915050612325565b506040805160a081018252868152602080820187905281830186905260608201859052600060808301819052600754815260068252929092208151805192939192612487928492019061252e565b5060208281015180516124a0926001850192019061252e565b50604082015180516124bc91600284019160209091019061252e565b5060608201518160030155608082015181600401559050506007547f54e9cb5ebe49e5aa1476cef7c5abac9af1cffc245b2a6403e531976361e3d59a866040516125069190612ac6565b60405180910390a26007805490600061251e83612fa7565b9091555060019695505050505050565b82805461253a90612f6c565b90600052602060002090601f01602090048101928261255c57600085556125a2565b82601f1061257557805160ff19168380011785556125a2565b828001600101855582156125a2579182015b828111156125a2578251825591602001919060010190612587565b506125ae9291506125b2565b5090565b5b808211156125ae57600081556001016125b3565b600082601f8301126125d7578081fd5b81356001600160401b03808211156125f1576125f1612fd8565b604051601f8301601f19168101602001828111828210171561261557612615612fd8565b60405282815284830160200186101561262c578384fd5b82602086016020830137918201602001929092529392505050565b600080600080600080600060e0888a031215612661578283fd5b87356001600160401b0380821115612677578485fd5b6126838b838c016125c7565b985060208a0135915080821115612698578485fd5b6126a48b838c016125c7565b975060408a01359150808211156126b9578485fd5b6126c58b838c016125c7565b965060608a01359150808211156126da578485fd5b6126e68b838c016125c7565b955060808a0135945060a08a0135915080821115612702578384fd5b61270e8b838c016125c7565b935060c08a0135915080821115612723578283fd5b506127308a828b016125c7565b91505092959891949750929550565b60008060008060808587031215612754578384fd5b84356001600160401b038082111561276a578586fd5b612776888389016125c7565b9550602087013591508082111561278b578485fd5b612797888389016125c7565b945060408701359150808211156127ac578384fd5b506127b9878288016125c7565b949793965093946060013593505050565b6000602082840312156127db578081fd5b5035919050565b600080604083850312156127f4578182fd5b8235915060208301356001600160401b03811115612810578182fd5b61281c858286016125c7565b9150509250929050565b60008060408385031215612838578182fd5b50508035926020909101359150565b60008282518085526020808601955080818302840101818601855b8481101561289057601f1986840301895261287e8383516128d7565b98840198925090830190600101612862565b5090979650505050505050565b6000815180845260208085019450808401835b838110156128cc578151875295820195908201906001016128b0565b509495945050505050565b600081518084526128ef816020860160208601612f3c565b601f01601f19169290920160200192915050565b60008251612915818460208701612f3c565b9190910192915050565b600080835461292d81612f6c565b60018281168015612945576001811461295657612982565b60ff19841687528287019450612982565b8786526020808720875b858110156129795781548a820152908401908201612960565b50505082870194505b50929695505050505050565b6001600160a01b0391909116815260200190565b600060e082526129b560e083018a61289d565b82810360208401526129c7818a612847565b905082810360408401526129db8189612847565b905082810360608401526129ef8188612847565b90508281036080840152612a03818761289d565b905082810360a0840152612a178186612847565b905082810360c0840152612a2b8185612847565b9a9950505050505050505050565b600060c08252612a4c60c083018961289d565b8281036020840152612a5e8189612847565b90508281036040840152612a728188612847565b90508281036060840152612a868187612847565b90508281036080840152612a9a818661289d565b905082810360a0840152612aae818561289d565b9998505050505050505050565b901515815260200190565b600060208252612ad960208301846128d7565b9392505050565b600060608252612af360608301866128d7565b8281036020840152612b0581866128d7565b90508281036040840152612b1981856128d7565b9695505050505050565b6000610100808352612b378184018c6128d7565b90508281036020840152612b4b818b6128d7565b90508281036040840152612b5f818a6128d7565b90508281036060840152612b7381896128d7565b90508660808401528560a084015282810360c0840152612b9381866128d7565b905082810360e0840152612ba781856128d7565b9b9a5050505050505050505050565b600060a08252612bc960a08301886128d7565b8281036020840152612bdb81886128d7565b90508281036040840152612bef81876128d7565b60608401959095525050608001529392505050565b60006020808352818454612c1781612f6c565b80848701526040600180841660008114612c385760018114612c4c57612c77565b60ff19851689840152606089019550612c77565b898852868820885b85811015612c6f5781548b8201860152908301908801612c54565b8a0184019650505b509398975050505050505050565b60208082526022908201527f596f75206861766520616c726561647920766f74656420666f72206120706172604082015261747960f01b606082015260800190565b60208082526051908201527f412063616e6469646174652066726f6d207468652073616d652070617274792060408201527f697320616c72656164792072756e6e696e6720666f72207468697320706f736960608201527074696f6e20696e2074686973206172656160781b608082015260a00190565b6020808252601f908201527f566f746572204944206d7573742062652067726561746572207468616e203000604082015260600190565b60208082526018908201527f43616e64696461746520646f6573206e6f742065786973740000000000000000604082015260600190565b60208082526014908201527314185c9d1e48191bd95cc81b9bdd08195e1a5cdd60621b604082015260600190565b602080825260169082015275165bdd48185c99481b9bdd081c9959da5cdd195c995960521b604082015260600190565b60208082526032908201527f4120706172747920776974682074686973206e616d6520616c72656164792065604082015271786973747320696e2074686973206172656160701b606082015260800190565b60208082526028908201527f596f75206861766520616c726561647920766f74656420666f722074686973206040820152673837b9b4ba34b7b760c11b606082015260800190565b6020808252818101527f5468697320766f74657220697320616c72656164792072656769737465726564604082015260600190565b60208082526022908201527f4f6e6c79206f776e65722063616e20706572666f726d2074686973206163746960408201526137b760f11b606082015260800190565b90815260200190565b60008219821115612f3757612f37612fc2565b500190565b60005b83811015612f57578181015183820152602001612f3f565b83811115612f66576000848401525b50505050565b600281046001821680612f8057607f821691505b60208210811415612fa157634e487b7160e01b600052602260045260246000fd5b50919050565b6000600019821415612fbb57612fbb612fc2565b5060010190565b634e487b7160e01b600052601160045260246000fd5b634e487b7160e01b600052604160045260246000fdfea2646970667358221220e30d70cdc96dba70ed6e0f414604908f7bd5249d0a684e63bf0ea25bc6fab97164736f6c63430008000033",
  "immutableReferences": {},
  "source": "// SPDX-License-Identifier: MIT\r\npragma solidity ^0.8.0;\r\n\r\nimport \"./CandidateManager.sol\";\r\nimport \"./VoterManager.sol\";\r\nimport \"./PartyManager.sol\";\r\n\r\n/**\r\n * @title Voting\r\n * @dev Main voting contract - streamlined for essential functionality\r\n * @notice Voting period management handled off-chain\r\n */\r\ncontract Voting is CandidateManager, VoterManager, PartyManager {\r\n    \r\n    /**\r\n     * @dev Constructor sets the contract deployer as owner\r\n     */\r\n    constructor() {\r\n        owner = msg.sender;\r\n    }\r\n\r\n    // ============ Voting Function ============\r\n\r\n    /**\r\n     * @dev Cast a vote for a candidate\r\n     * @param voterID The ID of the voter casting the vote\r\n     * @param candidateId The ID of the candidate to vote for\r\n     * @return success True if vote was cast successfully\r\n     * @notice Voting period management is handled off-chain\r\n     */\r\n    function vote(uint256 voterID, uint256 candidateId) \r\n        public \r\n        returns (bool success) \r\n    {\r\n        require(registeredVoters[voterID], \"You are not registered\");\r\n        require(candidateId < candidateCount, \"Candidate does not exist\");\r\n\r\n        // Ensure the voter has not voted already for this position\r\n        CandidateInfo storage candidate = candidates[candidateId];\r\n        require(\r\n            !hasVotedForPosition[voterID][candidate.position],\r\n            \"You have already voted for this position\"\r\n        );\r\n\r\n        // Record the vote\r\n        hasVotedForPosition[voterID][candidate.position] = true;\r\n\r\n        // Increment vote count for the candidate\r\n        candidate.voteCount++;\r\n        \r\n        emit VoteCast(voterID, candidateId, candidate.position);\r\n        return true;\r\n    }\r\n\r\n    // ============ Indirect Voting (Party Voting) ============\r\n\r\n    /**\r\n     * @dev Cast a vote for a political party (indirect voting)\r\n     * @param voterID The ID of the voter casting the vote\r\n     * @param partyId The ID of the party to vote for\r\n     * @return success True if vote was cast successfully\r\n     * @notice Each voter can only vote for one party\r\n     */\r\n    function voteForParty(uint256 voterID, uint256 partyId) \r\n        public \r\n        returns (bool success) \r\n    {\r\n        require(registeredVoters[voterID], \"You are not registered\");\r\n        require(partyId < partyCount, \"Party does not exist\");\r\n        require(!hasVotedForParty[voterID], \"You have already voted for a party\");\r\n\r\n        // Record the party vote\r\n        hasVotedForParty[voterID] = true;\r\n\r\n        // Increment vote count for the party\r\n        parties[partyId].voteCount++;\r\n        \r\n        emit PartyVoteCast(voterID, partyId, parties[partyId].partyName);\r\n        return true;\r\n    }\r\n\r\n    /**\r\n     * @dev Check if a voter has voted for a party\r\n     * @param voterID The ID of the voter\r\n     * @return True if voter has voted for a party\r\n     */\r\n    function hasVoterVotedForParty(uint256 voterID) public view returns (bool) {\r\n        return hasVotedForParty[voterID];\r\n    }\r\n\r\n    // ============ Results & Statistics ============\r\n\r\n    /**\r\n     * @dev Get all candidates with their complete information including votes\r\n     * @return ids Array of candidate IDs\r\n     * @return names Array of candidate names\r\n     * @return parties Array of party names\r\n     * @return positions Array of positions\r\n     * @return voteCounts Array of vote counts\r\n     * @return photoUrls Array of candidate photo URLs\r\n     * @return logoUrls Array of party logo URLs\r\n     */\r\n    function getAllCandidatesWithResults() \r\n        public \r\n        view \r\n        returns (\r\n            uint256[] memory ids,\r\n            string[] memory names,\r\n            string[] memory parties,\r\n            string[] memory positions,\r\n            uint256[] memory voteCounts,\r\n            string[] memory photoUrls,\r\n            string[] memory logoUrls\r\n        ) \r\n    {\r\n        uint256 count = candidateCount;\r\n        \r\n        ids = new uint256[](count);\r\n        names = new string[](count);\r\n        parties = new string[](count);\r\n        positions = new string[](count);\r\n        voteCounts = new uint256[](count);\r\n        photoUrls = new string[](count);\r\n        logoUrls = new string[](count);\r\n        \r\n        for (uint256 i = 0; i < count; i++) {\r\n            CandidateInfo memory candidate = candidates[i];\r\n            ids[i] = i;\r\n            names[i] = candidate.name;\r\n            parties[i] = candidate.party;\r\n            positions[i] = candidate.position;\r\n            voteCounts[i] = candidate.voteCount;\r\n            photoUrls[i] = candidate.candidatePhotoUrl;\r\n            logoUrls[i] = candidate.candidatePartyLogoUrl;\r\n        }\r\n        \r\n        return (ids, names, parties, positions, voteCounts, photoUrls, logoUrls);\r\n    }\r\n\r\n    /**\r\n     * @dev Get total votes cast across all positions\r\n     * @return Total number of votes cast\r\n     */\r\n    function getTotalVotesCast() public view returns (uint256) {\r\n        uint256 totalVotes = 0;\r\n        for (uint256 i = 0; i < candidateCount; i++) {\r\n            totalVotes += candidates[i].voteCount;\r\n        }\r\n        return totalVotes;\r\n    }\r\n\r\n    /**\r\n     * @dev Get total party votes cast\r\n     * @return Total number of party votes cast\r\n     */\r\n    function getTotalPartyVotesCast() public view returns (uint256) {\r\n        uint256 totalVotes = 0;\r\n        for (uint256 i = 0; i < partyCount; i++) {\r\n            totalVotes += parties[i].voteCount;\r\n        }\r\n        return totalVotes;\r\n    }\r\n}\r\n",
  "sourcePath": "C:\\Users\\Dell\\Desktop\\VotingSystem\\Contract\\contracts\\Voting.sol",
  "compiler": {
    "name": "solc",
    "version": "0.8.0+commit.c7dfd78e.Emscripten.clang"
  },
  "schemaVersion": "3.4.16",
  "updatedAt": "2026-01-18T15:18:14.373Z",
  "networkType": "ethereum",
  "devdoc": {
    "details": "Main voting contract - streamlined for essential functionality",
    "kind": "dev",
    "methods": {
      "addCandidate(string,string,string,string,uint256,string,string)": {
        "details": "Add a new candidate to the election",
        "params": {
          "_areaNo": "Area number",
          "_candidatePartyLogoUrl": "URL to party logo",
          "_candidatePhotoUrl": "URL to candidate's photo",
          "_district": "District name",
          "_name": "Candidate's full name",
          "_party": "Political party",
          "_position": "Position running for"
        },
        "returns": {
          "success": "True if candidate was added successfully"
        }
      },
      "addParty(string,string,string,uint256)": {
        "details": "Add a new political party",
        "params": {
          "_areaNo": "Area number",
          "_district": "District name",
          "_partyLogoUrl": "URL to party's logo",
          "_partyName": "Party's name"
        },
        "returns": {
          "success": "True if party was added successfully"
        }
      },
      "constructor": {
        "details": "Constructor sets the contract deployer as owner"
      },
      "getAllCandidatesWithResults()": {
        "details": "Get all candidates with their complete information including votes",
        "returns": {
          "ids": "Array of candidate IDs",
          "logoUrls": "Array of party logo URLs",
          "names": "Array of candidate names",
          "parties": "Array of party names",
          "photoUrls": "Array of candidate photo URLs",
          "positions": "Array of positions",
          "voteCounts": "Array of vote counts"
        }
      },
      "getAllPartiesWithResults()": {
        "details": "Get all parties with their vote counts",
        "returns": {
          "areaNumbers": "Array of area numbers",
          "districts": "Array of districts",
          "ids": "Array of party IDs",
          "logoUrls": "Array of party logo URLs",
          "names": "Array of party names",
          "voteCounts": "Array of vote counts"
        }
      },
      "getCandidate(uint256)": {
        "details": "Get complete information about a candidate",
        "params": {
          "candidateId": "The ID of the candidate"
        },
        "returns": {
          "areaNo": "Candidate's area number",
          "candidatePartyLogoUrl": "URL to party logo",
          "candidatePhotoUrl": "URL to candidate's photo",
          "district": "Candidate's district",
          "name": "Candidate's name",
          "party": "Candidate's party",
          "position": "Position they're running for",
          "voteCount": "Current vote count"
        }
      },
      "getCandidateCount()": {
        "details": "Get the total number of candidates",
        "returns": {
          "_0": "Total candidate count"
        }
      },
      "getParty(uint256)": {
        "details": "Get complete information about a party",
        "params": {
          "partyId": "The ID of the party"
        },
        "returns": {
          "areaNo": "Area number",
          "district": "District name",
          "partyLogoUrl": "URL to party's logo",
          "partyName": "Party's name",
          "voteCount": "Current vote count"
        }
      },
      "getPartyCount()": {
        "details": "Get the total number of parties",
        "returns": {
          "_0": "Total party count"
        }
      },
      "getTotalPartyVotesCast()": {
        "details": "Get total party votes cast",
        "returns": {
          "_0": "Total number of party votes cast"
        }
      },
      "getTotalVoterCount()": {
        "details": "Get total number of registered voters",
        "returns": {
          "_0": "Total voter count"
        }
      },
      "getTotalVotesCast()": {
        "details": "Get total votes cast across all positions",
        "returns": {
          "_0": "Total number of votes cast"
        }
      },
      "hasVoterVotedForParty(uint256)": {
        "details": "Check if a voter has voted for a party",
        "params": {
          "voterID": "The ID of the voter"
        },
        "returns": {
          "_0": "True if voter has voted for a party"
        }
      },
      "registerVoter(uint256)": {
        "details": "Register a new voter",
        "params": {
          "_voterID": "Unique identifier for the voter"
        }
      },
      "vote(uint256,uint256)": {
        "details": "Cast a vote for a candidate",
        "params": {
          "candidateId": "The ID of the candidate to vote for",
          "voterID": "The ID of the voter casting the vote"
        },
        "returns": {
          "success": "True if vote was cast successfully"
        }
      },
      "voteForParty(uint256,uint256)": {
        "details": "Cast a vote for a political party (indirect voting)",
        "params": {
          "partyId": "The ID of the party to vote for",
          "voterID": "The ID of the voter casting the vote"
        },
        "returns": {
          "success": "True if vote was cast successfully"
        }
      }
    },
    "title": "Voting",
    "version": 1
  },
  "userdoc": {
    "kind": "user",
    "methods": {
      "vote(uint256,uint256)": {
        "notice": "Voting period management is handled off-chain"
      },
      "voteForParty(uint256,uint256)": {
        "notice": "Each voter can only vote for one party"
      }
    },
    "notice": "Voting period management handled off-chain",
    "version": 1
  }
}